:020000040000fa
:080000000001040000000000f3
:020000040000fa
:04000800e003000011
:020000040000fa
:04000c0022040000ca
:020000040000fa
:040010006204000086
:020000040000fa
:0400140000040000e4
:020000040000fa
:04001800420400009e
:020000040000fa
:04001c00ee040000ee
:020000040000fa
:04002000ee040000ea
:020000040000fa
:04002400ee040000e6
:020000040000fa
:04002800ee040000e2
:020000040000fa
:04002c00ee040000de
:020000040000fa
:04003000ee040000da
:020000040000fa
:040034008204000042
:020000040000fa
:04003800ee040000d2
:020000040000fa
:04003c00ee040000ce
:020000040000fa
:04004000ee040000ca
:020000040000fa
:04004400b8040000fc
:020000040000fa
:04004800ee040000c2
:020000040000fa
:04004c00ee040000be
:020000040000fa
:04005000ee040000ba
:020000040000fa
:04005400ee040000b6
:020000040000fa
:04005800ee040000b2
:020000040000fa
:04005c00ee040000ae
:020000040000fa
:04006000ee040000aa
:020000040000fa
:04006400ee040000a6
:020000040000fa
:04006800ee040000a2
:020000040000fa
:04006c00ee0400009e
:020000040000fa
:04007000ee0400009a
:020000040000fa
:04007400ee04000096
:020000040000fa
:04007800ee04000092
:020000040000fa
:04007c00ee0400008e
:020000040000fa
:04008000ee0400008a
:020000040000fa
:04008400ee04000086
:020000040000fa
:04008800ee04000082
:020000040000fa
:04008c00ee0400007e
:020000040000fa
:04009000ee0400007a
:020000040000fa
:04009400ee04000076
:020000040000fa
:04009800ee04000072
:020000040000fa
:04009c00ee0400006e
:020000040000fa
:0400a000ee0400006a
:020000040000fa
:0400a400ee04000066
:020000040000fa
:0400a800ee04000062
:020000040000fa
:0400ac00ee0400005e
:020000040000fa
:0400b000ee0400005a
:020000040000fa
:0400b400ee04000056
:020000040000fa
:0400b800ee04000052
:020000040000fa
:0400bc00ee0400004e
:020000040000fa
:0400c000ee0400004a
:020000040000fa
:0400c400ee04000046
:020000040000fa
:0400c800ee04000042
:020000040000fa
:0400cc00ee0400003e
:020000040000fa
:0400d000ee0400003a
:020000040000fa
:0400d400ee04000036
:020000040000fa
:0400d800ee04000032
:020000040000fa
:0400dc00ee0400002e
:020000040000fa
:0400e000ee0400002a
:020000040000fa
:0400e400ee04000026
:020000040000fa
:0400e800ee04000022
:020000040000fa
:0400ec00ee0400001e
:020000040000fa
:0400f000ee0400001a
:020000040000fa
:0400f400ee04000016
:020000040000fa
:0400f800ee04000012
:020000040000fa
:0400fc00ee0400000e
:020000040000fa
:04010000ee04000009
:020000040000fa
:04010400ee04000005
:020000040000fa
:04010800ee04000001
:020000040000fa
:04010c00ee040000fd
:020000040000fa
:04011000ee040000f9
:020000040000fa
:04011400ee040000f5
:020000040000fa
:04011800ee040000f1
:020000040000fa
:04011c00ee040000ed
:020000040000fa
:04012000ee040000e9
:020000040000fa
:04012400ee040000e5
:020000040000fa
:04012800ee040000e1
:020000040000fa
:04012c00ee040000dd
:020000040000fa
:04013000ee040000d9
:020000040000fa
:04013400ee040000d5
:020000040000fa
:04013800ee040000d1
:020000040000fa
:04013c00ee040000cd
:020000040000fa
:04014000ee040000c9
:020000040000fa
:04014400ee040000c5
:020000040000fa
:04014800ee040000c1
:020000040000fa
:04014c00ee040000bd
:020000040000fa
:04015000ee040000b9
:020000040000fa
:04015400ee040000b5
:020000040000fa
:04015800ee040000b1
:020000040000fa
:04015c00ee040000ad
:020000040000fa
:04016000ee040000a9
:020000040000fa
:04016400ee040000a5
:020000040000fa
:04016800ee040000a1
:020000040000fa
:04016c00ee0400009d
:020000040000fa
:04017000ee04000099
:020000040000fa
:04017400ee04000095
:020000040000fa
:04017800ee04000091
:020000040000fa
:04017c00ee0400008d
:020000040000fa
:04018000ee04000089
:020000040000fa
:04018400ca030000aa
:020000040000fa
:04018800640300000c
:020000040000fa
:04018c000803000064
:020000040000fa
:04019000ee04000079
:020000040000fa
:04019400ee04000075
:020000040000fa
:04019800ee04000071
:020000040000fa
:04019c00ee0400006d
:020000040000fa
:0401a000ee04000069
:020000040000fa
:0401a400ee04000065
:020000040000fa
:0401a800ee04000061
:020000040000fa
:0401ac00ee0400005d
:020000040000fa
:0401b000ee04000059
:020000040000fa
:0401b400ee04000055
:020000040000fa
:0401b800ee04000051
:020000040000fa
:0401bc00ee0400004d
:020000040000fa
:0401c000ee04000049
:020000040000fa
:0401c400ee04000045
:020000040000fa
:0401c800ee04000041
:020000040000fa
:0401cc00ee0400003d
:020000040000fa
:0401d000ee04000039
:020000040000fa
:0401d400ee04000035
:020000040000fa
:0401d800ee04000031
:020000040000fa
:0401dc00ee0400002d
:020000040000fa
:0401e000ee04000029
:020000040000fa
:0401e4008c02000089
:020000040000fa
:0401e80030020000e1
:020000040000fa
:0401ec00f20200001b
:020000040000fa
:0401f000ee04000019
:020000040000fa
:0401f400ee04000015
:020000040000fa
:0401f800ee04000011
:020000040000fa
:0401fc00ee0400000d
:020000040000fa
:10020000afc023000eff27000e0188000000000091
:10021000000020000000e000020032000001200089
:1002200020028800140007003d0207000000e000e3
:1002300003003a00a07725000100200002003700eb
:100240000000200001002000810f7000010032003a
:1002500014000700000020000000e000020032004f
:100260000000020000000000f85e02000000000034
:100270000040da000000fe004440a900803d20005c
:100280000000e00003003200002020009001880000
:100290004440a800000006008a1f78008b1f7800e9
:1002a00000000600a1028800800478000000eb0036
:1002b0001f003700e284440054a0b4009905ba003e
:1002c000e284440054a0b4009906ba00e2844400d9
:1002d00054a0b4000006eb00476fde00fd07b2003b
:1002e000ae018800636ce10003003a00eaff0700fa
:1002f0000000eb000e003700606ce10008003a00df
:10030000004deb000a05e800020039003420ec0043
:100310000af0a0008b05e900f9ff3e000400370059
:100320006168e100010032000086eb000b0007006d
:1003300019c7ba001905ba000e04e00003003a001c
:100340000a00e000dbff3a0000000600fe07b200f2
:10035000ae0288008a047800f5ff37000cd0a300b5
:10036000e20f4d001c00390089027800354dba00bb
:100370000a05e800020039003420ec000af0a00071
:100380008b05e9000f003200254dba000a05e80090
:10039000020039003420ec000af0a0008b05e900cf
:1003a000080032000c00e0000600320015cdba0053
:1003b0000a05e800020039003420ec000af0a00031
:1003c0008b05e9008984e80054a0b4000b00e0002c
:1003d000e2ff3a00000006009902ba00055d7800cd
:1003e0008b05e900f7ff3200c82ade00055d7800c2
:1003f0008b05e900f3ff32000c00e000f1ff320052
:1004000019ddba00eeff3700544d04000000000073
:10041000724d0400000000005e5004000000000067
:100420007c50040000000000a85d040000000000f3
:10043000f05c040000000000d6270400000000006b
:100440005e0804000000000000000400000000003e
:100450009608040000000000c2080400000000002c
:100460003600f800809fbe00829fbe00849fbe00c1
:10047000869fbe000000fa001042800000000100cc
:10048000f1418000e0418000808f500002003a007e
:10049000a600a900190037009600a9001000370037
:1004a000f0418000904078008180fb00011f8800af
:1004b0000000e800f0418800f14180005006210072
:1004c000808f500002003a0040862000f0418800f2
:1004d000f1418000e0418000808f50000600320032
:1004e000f11e800000202000008060000000e0007d
:1004f000ebff320001003700000000000080fa002e
:100500004f03be004f02be004f01be004f00be00b1
:100510003600f900004006003600f800809fbe005b
:10052000829fbe00849fbe00869fbe000000fa002e
:10053000204280000000010095e0a9001e00370065
:10054000c0418000111f8000814078000148780080
:10055000c141800050862100808f50000900320088
:10056000c04180008000e800d0418000808f5000b2
:1005700004003200c04180000000e800c041880053
:100580000d003700c141800050862100808f50004f
:1005900007003a00d141800050062100808f5000b2
:1005a0000300320050062100c041880002003700dd
:1005b00010c0b30040e8b700f01e8000610060008a
:1005c0000000e000deff3a000080fa004f03be00aa
:1005d0004f02be004f01be004f00be003600f900c2
:1005e00000400600801f78000000fa00f01e800026
:1005f000620060000000e00001003200de23a9007c
:100600009620a9000080fa004f0078000040060004
:100610003600f800809fbe00829fbe00849fbe000f
:10062000869fbe000000fa008042800000000100aa
:100630006142800050428000808f500002003a00ea
:10064000a320a900190037009320a900100037004b
:1006500060428000904078008180fb00a11e8800ed
:100660000000e800604288006142800070062200bd
:10067000808f500002003a006086210060428800ae
:100680006142800050428000808f5000060032009e
:10069000911e800000202000008060000000e0002b
:1006a000ebff320001003700000000000080fa007c
:1006b0004f03be004f02be004f01be004f00be0000
:1006c0003600f900004006003600f800809fbe00aa
:1006d000829fbe00849fbe00869fbe000000fa007d
:1006e00090428000000001009300a9001e00370026
:1006f00030428000b11e80008140780001487800bf
:100700003142800070862200808f50000900320044
:10071000304280008000e80040428000808f50001e
:1007200004003200304280000000e80030428800bf
:100730000d0037003142800070862200808f50000b
:1007400007003a004142800070062200808f50006e
:100750000300320070062200304288000200370099
:1007600010c0b3004ee8b700901e8000610060002a
:100770000000e000deff3a000080fa004f03be00f8
:100780004f02be004f01be004f00be003600f90010
:1007900000400600801f78000000fa00901e8000d4
:1007a000620060000000e00001003200d223a900d6
:1007b00092e0a9000080fa004f0078000040060097
:1007c0003600f800809fbe00829fbe00849fbe005e
:1007d000869fbe000000fa008020a9000000eb0008
:1007e000972d07000080fa004f03be004f02be00a5
:1007f0004f01be004f00be003600f9000040060069
:100800003600f800809fbe00829fbe00849fbe001d
:10081000869fbe000000fa008e2d07008040a900d0
:1008200010002000862d07000080fa004f03be0054
:100830004f02be004f01be004f00be003600f9005f
:10084000004006003600f800809fbe00829fbe0078
:10085000849fbe00869fbe000000fa008060a90051
:1008600020002000762d07000080fa004f03be0014
:100870004f02be004f01be004f00be003600f9001f
:10088000004006003600f800809fbe00829fbe0038
:10089000849fbe00869fbe000000fa008080a900f1
:1008a00030002000662d07000080fa004f03be00d4
:1008b0004f02be004f01be004f00be003600f900df
:1008c000004006003600f800809fbe00829fbe00f8
:1008d000849fbe00869fbe000000fa008600a9002b
:1008e00070002000562d07000080fa004f03be0064
:1008f0004f02be004f01be004f00be003600f9009f
:10090000004006003600f800809fbe00829fbe00b7
:10091000849fbe00869fbe000000fa000043800056
:100920000000e000020032000043800000000100ef
:1009300010c02300104078008040e80010c0230061
:100940000148780000c0230011c0b30001487800be
:100950008860a9000080fa004f03be004f02be006d
:100960004f01be004f00be003600f90000400600f7
:100970003600f800809fbe00829fbe00849fbe00ac
:10098000869fbe000000fa00104380000000e000d7
:1009900002003200104380000000010030c023003c
:1009a000104078008040e80030c023000148780003
:1009b00020c0230011c0b3000148780088e0a900de
:1009c0000080fa004f03be004f02be004f01be0080
:1009d0004f00be003600f900004006000040da007b
:1009e0000000fe000a00fa0011002000b1bf9f00c5
:1009f000c0bf9f006a8057003d0707004fb89700af
:100a00000080fa00000006000a00fa0051002000f1
:100a1000b1bf9f00c0bf9f006a8057003607070024
:100a20005fb897000080fa0000000600889fbe00b3
:100a30008004780040e081000000e00004003a00fb
:100a40000e0007000084eb000000e0000800350005
:100a500048e081000900e000050032000900440080
:100a6000060007000000e00001003d000084eb00ec
:100a7000080078004f04be000000060080007800e7
:100a80000100e00003003a000000200040e089007f
:100a9000000005000080eb0002002000828f500063
:100aa00002003e0041e089000000eb00000006006b
:100ab0000a00fa00200798003107980042079800c2
:100ac000be009000110798000000eb00000f7800b6
:100ad0000c003700000000003b2407000004a200c7
:100ae0000004e000fcff3a001e0090001040780077
:100af0009e0090008100e800110798001224070072
:100b00001e0fe8004e0090009e007800808f50007d
:100b1000f0ff39004e0090000080fa00000006004f
:100b200000000500e1b223006b00070080007800a0
:100b30000080eb000100e00004003500e1b223007a
:100b4000a0002000020007004f80de000000060029
:100b5000889fbe008a1f78000004be00c900900074
:100b600069009000808f500006003900090078006d
:100b7000b8000700800078000080eb000100e00072
:100b800017003500084578004900900008587800a3
:100b9000c00498001900780000b8a30004003a00cf
:100ba00000a8a30008003200ea4f540006003a00f3
:100bb000090078000d000700800078000080eb003d
:100bc0000100e00006003a0000c0200019006000ab
:100bd0000200320049009000e00498000a80fb0007
:100be0004f0578004f04be0000000600889fbe003d
:100bf0008a1f7800000478000800e0000d003a0029
:100c0000c8b72300700544008004eb00580078004a
:100c10000000e00004003200f4ff07000000e000e4
:100c200001003d008084eb008a0f5400f7ff3a007a
:100c30002500370000002200180060008004eb004f
:100c400021003200a80490000f0037000901510074
:100c5000384090000000fb008900780094ff0700f6
:100c60000000e00007003c002800900040049800cd
:100c700060049800500c98001890a0008084eb004d
:100c8000110037008084440048019000828f540096
:100c9000eeff39002800900040049800980078008a
:100ca00002c020000281600001003a00380090007c
:100cb00001e8a30002003200600498000100370040
:100cc000500c98008004eb00090078004f05780074
:100cd0004f04be0000000600889fbe008a9fbe0031
:100ce00080047800010478002c003700c8009000d0
:100cf00068009000808f50000400390008007800e0
:100d0000540007000000e0003700350000402000dc
:100d10001800600009003200a100200009007800de
:100d200042000700800578000b00e000030032005d
:100d3000618514000a854500040037000900780029
:100d400034000700000578008005eb0048009000a3
:100d5000e8009000808050008a8f5000020031002f
:100d6000010578008005eb000a0178008900780011
:100d700021000700480090000a004000400498004d
:100d80000b00e000040032000800780097ff070025
:100d90000000e00014003a008a8444001904e000d6
:100da000d2ff3a00008020001800600006003200e8
:100db000080078008dff0700800078000080eb00bd
:100dc0000100e00009003a0001c0200098806000a6
:100dd0000000eb000500320048009000600498001d
:100de0000000eb00010037000080eb004f05be0063
:100df0004f04be00000006008001780002003700aa
:100e0000b15978000201e9000200e000fcff3a005d
:100e10000000060080007800010178003104e00045
:100e2000fdff3a0000005100000006000001eb0049
:100e300000027800b041780081cf510001003a00f3
:100e4000040178000304e000f9ff3a000200780092
:100e500000000600889fbe008a1f7800000478000a
:100e6000c8009000680190000000eb00828f5000e5
:100e70003c003900180078002200290002016000bf
:100e8000e20f510007003200012020000000e000c6
:100e90000100350001202400008c70000080eb0070
:100ea000300037000200260002006000820f500070
:100eb00009003a0038009000808f50000600390089
:100ec0000800780049ff0700800078000080eb00f0
:100ed0000100e00023003a001805780000c020005f
:100ee0000000650018003a00a8049000600220008d
:100ef00008004000808f540013003a0000202000ba
:100f00003a030700200498000000e00005003a00c2
:100f100029049800490498008904e80039049800dd
:100f2000080037000a60a0000a0c7800400498000e
:100f3000012020008080400031049800400c98007f
:100f4000500c98000c0007002800900050049800f6
:100f5000380090006004980000002600180c700013
:100f60000000eb004f0578004f04be0000000600b3
:100f7000e085200061003700881f780048c023000a
:100f80001804e00003003a00f9ff070020c0b30096
:100f9000004c78004f04780000000600889fbe00d7
:100fa000000478000800780010ff07008004780033
:100fb00000042000180060000200320028009000a9
:100fc000510207000000eb00200498003840900018
:100fd0000004e000050035000000fb0081fe070072
:100fe0000000e000010032008084eb001810900047
:100ff0000000e0000800320083fe07000000e0006f
:10100000010032008084eb00181090003e020700bf
:101010000000eb0010149800000820001800600089
:10102000150032000001eb006000b800e3b72300b8
:101030000202d00063027a00880f520005003a00d5
:101040000000400081804800008041000008eb0063
:101050000600370061004000e08048000201e8001f
:10106000e80f5000e08f5800f0ff3a0008007800c9
:10107000250207000e003700000c780000c0eb00ce
:1010800030449800600220000800400020049800ce
:101090004004980050049800400c980060049800a8
:1010a000500c98007004980076004400000c9800e2
:1010b000090078004f04be0000000600881f780079
:1010c0000004eb006140b800e2ff2f00f3ff2f00a7
:1010d000f1050700c2b82300620078000000e000bc
:1010e00001003200adff07000804e800e80f5400db
:1010f000f4ff3a004f0478000000060001002000d1
:101100000100e00008003200010080000100e00062
:10111000050032008100e900010088008100d00054
:101120000200800000b1780000000600889fbe0029
:1011300000047800010078008204780088017800bb
:10114000090178001100200021020700890f5000da
:10115000010032000004eb00080078004f04be00dc
:10116000000006000000fa00e88157004fb9970020
:10117000e1b2230060892000cc0007000080fa0063
:1011800000000600889fbe00000478000203be0035
:10119000810478000802780089017800120020009c
:1011a0000600be00e6040700890f5000010032006f
:1011b0000004eb00080078004f04be0000000600a9
:1011c0006800fa00889fbe008a9fbe0080047800f5
:1011d0000104780082057800030578008400780017
:1011e00000f92f000f004000d3040700d98f9f00a3
:1011f000fb8f9f000000eb00a09f9f00e88f9f00e7
:101200009a84fb000904fb008904ea00cf4cde004d
:1012100050022000800f54000d003200e18f540076
:101220000b003a00090178008a0078007f88970057
:10123000df89970003000100f08f9f000000e000ad
:10124000950032002f9897000000e800a09f9f00b3
:101250000905450050022000800f540004003200b0
:101260000800e000e6ff3a002f9897008b00370057
:101270000000eb00809f9f00f0979f00e0979f0089
:10128000d0979f00c0979f00b0979f00070037003e
:1012900041be2300010050000000400081bd23003a
:1012a00061007800cf98970001007000c09f9f00f8
:1012b0000a04780008057800ba4478008900fb0029
:1012c00040be23007d0207000000e000f0ff3a006e
:1012d000a1c2b30081cf54000e003a008f8897005e
:1012e0000180e900808f9f0010007800b09f9f0070
:1012f0000000e00005003d000000ea00b09f9f00f4
:101300004f9897000020a000c09f9f000804e800ad
:1013100010003700b09f9f00880078000000eb00ad
:1013200005003700f3ff2700830f50000200320052
:101330006a02b900040041000104780088007800c6
:101340003101fb000203b100e90f5100f5ff360047
:10135000b09f9f00e0c2b300984f1000020032001f
:101360000080eb0019003700a0c2b300d84f100076
:1013700007003a008f8897000180e900808f9f0066
:1013800010007800909f9f000804e80010003700cc
:101390000000eb00909f9f00880078000500370058
:1013a000f3ff2700830f5000020032006a02b900e9
:1013b0000400410001047800880078003101fb003e
:1013c0000203b100e90f5100f5ff3600909f9f0026
:1013d000984478008900fb0000bd23003702070015
:1013e0000000e000020032000804e80001003700bd
:1013f0008044eb00a97f9f0080c6b30080cf5400db
:1014000006003a0098cf140010003a0066405000e1
:10141000a07f9f000804e8000c003700c0c6b3009e
:1014200080cf540009003a0098cf140007003a001a
:1014300067404000d84f100002003a006e40500054
:101440000100370010c7b300a07f9f001801fb0008
:10145000c3fb2f008f81410001f92f008f804000d6
:1014600020f92f000f004000150007000000e000e9
:1014700009003a00c1fb2f008f80400020f92f00a7
:101480000f004000520307000000e000020035009a
:101490000805e8005aff37000080eb004f05be004a
:1014a0004f04be000080fa0000000600030278002e
:1014b0008201780001017800218c200040ff370074
:1014c000889fbe008a9fbe00e4c6b300844f5100cf
:1014d000be00320010003c006b425200844f5100ad
:1014e0001800320005003c0054c2b300844f510084
:1014f000f600320084c5b3000f00370044c6b300c5
:10150000844f51001400320065424200844f510064
:10151000f1003a001000370004c7b300844f5100b7
:10152000dd0032005600350065424200844f510014
:101530005300320063424200844f5100e6003a00fb
:101540004f0037001181e90082087800a008900060
:1015500012417800de003700006a9000c5c6b30073
:10156000854f520007003a009102780064825200d1
:10157000840878001402be004fabde0086037800ba
:101580001400370015c7b300854f520003003a001e
:10159000110478006802540005003700a5c6b300a6
:1015a000854f520006003a0091047800688254008a
:1015b000840878005403be004402be0005003700d2
:1015c0001182e9008408780014027800cfa2de00be
:1015d000612bb9000498be000690be0080689000a0
:1015e00088c6b30088cf50000d00320028c6b30073
:1015f00088cf500004003a000402fb00cfa2de00b6
:10160000612bb9000800370048c7b30088cf5000ed
:10161000030032006644440088cf500004003a00c2
:10162000cfa2de00612bb9000498be000690be0078
:101630003002be002003be00a0089000e00f520060
:10164000e08f5a00e00f5b00e08f5b0002003d007e
:10165000d4c2b30008003700301290000418a30071
:1016600002003200b4c2b300030037000408a30034
:101670005100320004c2b30084f178004c003700fe
:10168000006a9000c5c6b300854f520008003a00ba
:101690001105780064025500840878001404be0027
:1016a0006055b8000802be000a03be0014003700ef
:1016b00015c7b300854f520003003a00910478002b
:1016c0006882540005003700a5c6b300854f52005c
:1016d00006003a0011057800680255008408780079
:1016e0005403be004402be00050037001182e90029
:1016f00084087800140278008002eb006033b800a0
:101700000498be000690be008068900088c6b300b2
:1017100088cf50000d00320028c6b30088cf50009b
:1017200004003a000482fb008002eb006033b80042
:101730000800370048c7b30088cf500003003200cc
:101740006644440088cf500004003a008002eb0059
:101750006033b8000498be000690be00b010900040
:101760000138a300140032003002be002003be0086
:10177000e00f5200e08f5a00e00f5b00e08f5b004b
:101780000d00320081c7b300814f510003003200c9
:1017900081c5b300814f510007003a00a0089000b6
:1017a00004c3b30084f178008100e80082f178007e
:1017b0008100e80021089800a00890008181410084
:1017c00073009800824078003e00370080699000e6
:1017d000c4c6b3001181e90084cf51002200320059
:1017e0000a003c006442520084cf510025003200c0
:1017f00004c2e80084cf5100130032006842520056
:1018000084cf51001e003a000a00370044c7b300dd
:1018100084cf51001b0032006642420084cf510049
:10182000180032006942520084cf510014003a007f
:101830000500370082087800920078002060900050
:10184000804878002c0037008208780092007800e9
:1018500010129000cfa2de00612bb9008498be0068
:101860008690be002400370082087800920078003d
:1018700010119000cf91de008288be001e0037005c
:101880001181e90082087800920078001010900021
:1018900080087800180037001181e900820878007c
:1018a00012027800cfa2de00612bb9000498be00be
:1018b0000690be00a008900081814100730098004e
:1018c00081c7b300130107000b003700a008900088
:1018d00082f1780006003700a00890008181410065
:1018e0000204e00001003a0052c2b30082497800cd
:1018f0008100e800210898000000eb004f05be00c1
:101900004f04be00000006000000e0002f0032007f
:10191000c0017800e38f51002c0036000308a300bb
:101920002a003a00f1df81000100e00002003200ed
:10193000810f50000400310011009800f0df890091
:101940001600370082007800110190000200e000cc
:1019500002003200800f5100faff390011027800b6
:1019600084824000850f500018003900808f52009b
:1019700003003a00830842000100780007003700a6
:101980000200e0000300320083014000830f510099
:101990000e0039001200980090009800900090000e
:1019a0000100e0000900320010014000828f500069
:1019b00006003a00c2bf23000009eb0010017800c6
:1019c00011084100910090001100980000000600ed
:1019d000889fbe008a9fbe008c9fbe008e1f78002d
:1019e0000006780001047800020078008304780083
:1019f0000881b900020778000200e00042003200ce
:101a00000800e0004100320082057800c900900023
:101a100069009000808f50000400390009007800b0
:101a20000cfd07000000e000290035000040200008
:101a3000190060000a0032000b017800a1002000ac
:101a40000c00780093000700800678000d00e0008d
:101a500006003200610516000a85460004003700c2
:101a60000b0578008006eb00010037000b057800bd
:101a700049009000e9009000808050008a8f50005b
:101a800002003100010578008006eb000a017800b1
:101a90008c007800d8fc07008a855500490090002a
:101aa0000a004000c00498000d00e000040032006d
:101ab000090078004dfc07000000e00004003a0037
:101ac0000b00e000020032000a064600cfff37009c
:101ad0000080200019006000020032000900780038
:101ae00042fc070000c02000190060000200320024
:101af00049009000e00498008b0557001100090090
:101b00008885d800010037000000eb004f077800ff
:101b10004f06be004f05be004f04be000000060089
:101b2000889fbe0000047800e1df81000100e00032
:101b300002003200010078000d003700f1df810063
:101b4000e0bf230004003700910f54002500360049
:101b50000180e800910090000100e000faff3a00e7
:101b600010003700920f54001e0036000280e8007b
:101b7000100178000200e000faff3a00110178003d
:101b8000f1df8100e0bf230004003700910f540013
:101b9000140036000180e80091009000828f500010
:101ba000faff3a0039e08100888f540001003100cb
:101bb00088047800090078004c0007000000e0006d
:101bc00004003a00888f5400050032008904d100d7
:101bd000f5ff3700091878004bff0700d2ff3700e8
:101be0000000eb004f04be0000000600881f7800d4
:101bf000630440000800a1008000eb00800f540047
:101c000021003600e30f540001003e004800200090
:101c100008007800c2ff07008000eb000000e00031
:101c20001900320090007800910178006481510021
:101c3000880f510003003100110190000208780064
:101c400007003700088140000208780091019000e9
:101c50001301980010017800110914008808780019
:101c6000100178000000eb000200e00004003200e8
:101c7000920190000300e000010032000280e800c1
:101c8000e0df89008180e800010078004f047800df
:101c90000000060003003700b0cf1000050032003e
:101ca0000201e900800178000200e000faff3a003a
:101cb0000000050003007800000006000200370065
:101cc0000304e00006003200000178000200780002
:101cd000b041780081cf5100f9ff3a000100370090
:101ce0000001eb0002007800000006008000780090
:101cf0000000eb000100e000050034000100780066
:101d00004afb0700e10f400001003a000000eb0031
:101d100000000600fc874700889fbe008a9fbe0027
:101d20008c9fbe008e1f78000006780080c5b3002f
:101d300080cf50000a0032007740400080cf500032
:101d40000a0032006940400080cf50000b00320092
:101d5000f0b9230080bf9f00ae0020000a003700ca
:101d6000e2b8230082bf9f0006003700f3b92300ca
:101d700083bf9f008e00200003003700f4b92300ca
:101d800084bf9f000e0120003c02be002c03be0059
:101d90000605be000404be0040c6b30080cf50005c
:101da000030032006540400080cf50000b003a0035
:101db000e00f5200e08f5a00e00f5b00e08f5b0005
:101dc00006003d006000b8006011b8000404500037
:101dd000858458000605590087855900e80f57008b
:101de0000400320040002000f00f570038003a0095
:101df0000100370030002000e00f5400e08f5c004d
:101e0000e00f5d00e08f5d0004003a008c10900050
:101e10008d0120000100e000060032008e00e90084
:101e2000888060008fba9700e5c07800f1ef9f00ce
:101e30007d012000800078008100e900050033006a
:101e40008b05d1000a85d3008984d3000884d30090
:101e5000f9ff3700089ebe000a96be001200370048
:101e60008d06e9008e00e900848060000fb99700bc
:101e7000e2c1780082fd2f000f01410003f17e00d6
:101e8000800078008100e900050033008783d100dd
:101e90000683d3008582d3000482d300f9ff370084
:101ea000049ebe000696be003c02be002c03be008f
:101eb000e00f5200e08f5a00e00f5b00e08f5b0004
:101ec0008b0034000d00e000e5ff3c008800370087
:101ed0000c68900081c6b300814f50000b003200a7
:101ee00006003c000004e00008003200e6c050009c
:101ef000814f50004e003a0004003700c1c6b300c5
:101f0000814f50004a003a00210037000800e000ed
:101f100004003a000c1090008d0120000000e00049
:101f200006003200110009000e84d8000fb9970096
:101f3000e2c07800f1ef9f007d0120001100090050
:101f40000e84d8000a003700110009000e04d800e2
:101f50008d06e9000e81b900020454008fb8970085
:101f600061417c0081fd2f008f80400082f07e0067
:101f7000000478000800e000020032000d00e000dc
:101f8000f1ff3c00cfc4de00614db90025003700f1
:101f9000e00f5400e08f5c0004003a000c10900049
:101fa0008d0120000000e000070032006171b900df
:101fb0000800be00350207008fb99700e3417800a2
:101fc000f3ef9f007d0120006171b9000800be00a1
:101fd0001e0207000b0037006171b9000800be0047
:101fe0000b0207008d06e90000f1b900020454005d
:101ff0000fba9700e4427c0084fd2f000f024200dc
:1020000005f27e000004be00e00f5000e08f580093
:10201000020032000d00e000efff3c004fcdde007b
:102020008a057800089ebe000a96be003000370080
:10203000e00f5400e08f5c00e00f5d00e08f5d007a
:1020400004003a000c1090008d0120000000e00018
:10205000090032006172b900612bb9000800be00ae
:102060000a01be00b20207000fba9700644278006e
:10207000f4ef9f007d0120006172b900612bb9006f
:102080000800be000a01be00a20207000d003700d2
:102090006172b900612bb9000800be000a01be00e0
:1020a000a70207008d06e90000f2b90004045400fd
:1020b0008fba970065427c0085fd2f008f82420019
:1020c00084f27e00009ebe000296be003c04be006c
:1020d0002c05be00e00f5400e08f5c00e00f5d00b7
:1020e000e08f5d00020034000d00e000e8ff3c00de
:1020f000e80f570010003a003c1090000038a30091
:102100000d003200f78f560006003e0085fd2f00bf
:102110008f824200e5c07e0000c3b30080cf500034
:10212000050032008d06e90002c3b30081fd2f00d7
:102130008f80400082f07e0078811600420e980069
:102140007c00900083fd2f008f8141008d80410035
:1021500029fb07004c0890008c109000810f500064
:1021600006003d0000805000300e98003c109000aa
:102170000040a100301698000f0037000100e00079
:102180000d003d00bc109000f4806000f08f500006
:1021900009003a002c119000ac0890008100510019
:1021a0003c09900082805000008050004240a9000d
:1021b00001003400300e98004f0778004f06be0033
:1021c0004f05be004f04be00cf01b1000000060065
:1021d0000400fa00889fbe008a9fbe008c1f780012
:1021e0000004780001067800a814900028089000e8
:1021f000808454003808900080845400480890007f
:10220000808454005808900080845400680890002e
:1022100080845400780890008084540000022200da
:1022200090bf9f0000032300a0bf9f0038109000c4
:102230000028a30015003a000900e0001300340054
:10224000090578008a057800e20f55000100360084
:102250002b002000c80190000b017800ee80570091
:102260006800900003000100600498000000e00096
:10227000aa003200181090000b00400010149800c3
:102280000b0555004240a900eeff3c0028099000d4
:102290000200e0000c003400c80190008c007800bf
:1022a0006800900003000100600498008080eb004b
:1022b0000000e0009a00320098109000280890007a
:1022c0000080400010149800380d90000a00e000d3
:1022d000110034008a057800e20f55000100360035
:1022e0002b002000c80190000b017800ec80570003
:1022f0006800900003000100600498000000e00006
:1023000086003200181090000b0040001014980056
:102310000b055500edff370008699000c8089000d4
:1023200050c6b300804f510008003a000100e000a1
:102330001500340058029000080990009809900098
:102340006800900004000100070037000100e00071
:102350000d003400c801900001017800f8009000e1
:102360006800900003000100600498008080eb008a
:102370000000e0006a0032009810900048089000c9
:102380000080400010149800580d90000a00e000f2
:10239000110034008a057800e20f55000100360074
:1023a0002b002000c80190000b017800ec80570042
:1023b0006800900003000100600498000000e00045
:1023c00056003200181090000b00400010149800c6
:1023d0000b055500edff3700086990006808900074
:1023e00051c6b300814f51000d003a000000e000db
:1023f0001c00340078019000c808900001014100e1
:102400006111b800828fd2008381d20058029000ff
:102410008000780068009000040001000900370087
:102420000000e0000f00340078019000c808900020
:1024300081004100c8019000000178006800900010
:1024400003000100600498008080eb000000e000c1
:10245000330032009810900068089000008040001f
:1024600010149800780d90000a00e000110034006c
:102470008a057800e20f5500010036002b0020008d
:10248000c80190000b017800ec80570068009000b4
:1024900003000100600498000000e0001f0032000b
:1024a000181090000b004000101498000b05550008
:1024b000edff3700381090008000eb000028a300eb
:1024c000170032000900e00015003400090578000b
:1024d000e28f5400010036002a002000c80190005d
:1024e0000a017800ee8057006800900003000100a8
:1024f000600498000000e00008003200181090000e
:102500000a004000101498008a8454004240a90038
:10251000eeff3c008000eb00010037008080eb0004
:10252000010078004f0678004f05be004f04be0042
:102530000080fa0000000600010878000000060094
:10254000e6874700889fbe008a9fbe008c9fbe0022
:102550008e1f780082bf9f0004047800029ab900a1
:10256000f4b79f000400e000590032000fb9970053
:102570000200e000570032000006be0004077800a9
:10258000c800900068009000808f5000040039005f
:10259000080078002ffa07000000e0003b0035003b
:1025a00000402000180060000a0032008e01780010
:1025b000a20020000c00be007a0007000005be004b
:1025c00000807500070032008c0455008904e80083
:1025d000050037008e0478000a0020000b00200060
:1025e000010037008e0478004801900068009000d8
:1025f00002005000890f5000030031008004780071
:102600000a0020000b0020006111b800828fd20068
:102610008381d200090278000c00be003800070058
:102620000907570048009000090040004004980046
:102630000a85750004003200080078006bf9070075
:102640000000e00011003a000e00e0000f00320030
:102650006148b800808fd2008180d20000007800ed
:1026600000f0a1008c01d0000001d00002864100e2
:102670004220a80081864e004200a9004220ae0000
:102680004200a8000c86d300bdff37000080200068
:1026900018006000020032000800780053f90700bb
:1026a00000c020001800600002003200c801900045
:1026b000630498007fb097000e0750000fb9970091
:1026c000110009000287d80080017800010037005e
:1026d0008001eb00030078004f0778004f06be0032
:1026e0004f05be004f04be006f00b10000000600a1
:1026f00000c0da000000060000c0da00000006009a
:102700003400f8003200f8000203be0082027000bc
:102710008502720002f0a6008301e800a301880090
:1027200000f0a6008100e800910188001500b200c9
:102730000c003200104978000402e9001500320054
:1027400061014100020039003420ec000200280041
:1027500061004000f7ff39003220ec000000280043
:10276000f4ff3700100978000482e9000900320004
:1027700062014100020039003420ec000200280010
:1027800062004000f7ff39003220ec000000280012
:10279000f4ff37003200f9003400f9000601be00f2
:1027a000000006000300e0000700320095018000f1
:1027b0009101880010427800950188000402fb0016
:1027c000820f5200110032008301e9009501800060
:1027d0009101880010427800950188000404e0000f
:1027e00008003200000278001000b00000026a0009
:1027f0004260af0000f0a0000482d2000180b0006f
:10280000e8ff370000002000010020000000060063
:10281000839f68000100e00002003d00600010009e
:10282000e08018000300e00002003d00600111009c
:10283000e0811900050007004f00e00002003b00a6
:1028400060001000e0801800000006006022b80060
:10285000060220000000d0008180d2000482d20055
:102860008582d2000000a0000202520083825a003a
:10287000030031000202420083824a000000a100ee
:102880000603e900f3ff3a0000000600efff07002f
:102890000400be0000000600020ab900001bb900d7
:1028a0000200b800810042008100430000000600e1
:1028b000889fbe008a9fbe0030044200b0844a0058
:1028c00030054b0090854b006000b1000898be00b9
:1028d0000a90be000440e10005c8e10006d0e10016
:1028e00007d8e10002003100680040001008e8004d
:1028f0004f05be004f04be0000000600889fbe00ca
:102900008a9fbe003004be002005be00041854009b
:1029100005985c0006185d0007985d001100200016
:102920000440e10005c8e10006d0e10007d8e1005d
:10293000010039008000eb00108810004f05be0038
:102940004f04be00000006001200fa00889fbe007f
:102950008a9fbe008c9fbe00e0b79f00f1b79f002a
:1029600082bf9f0093bf9f000605be000404be0007
:102970000000eb00d0b79f00c0b79f00b0b79f002a
:10298000a0b79f0090b79f00000678005fb1970046
:10299000cfb09700820141003fb097000200e000f5
:1029a00004003d00370007007e805700c0ff07008d
:1029b00003003700330007007e805700cfff070079
:1029c000dfb697000d00e0000c0035006fb29700f5
:1029d000ffb297000fbb97009fbb9700100020002d
:1029e000010020006011b8000002720081827200b4
:1029f00002037300838373001b0007000c06e800ca
:102a000001042000810f5600e0ff3a000d00e000b5
:102a100004003d000802be000a03be007e8057008d
:102a2000a3ff07005fa897000000e00005003a0040
:102a30001fb29700afb297003fb39700cfb3970094
:102a4000090007006fb09700ffb097000fb997001b
:102a50009fb997004f06be004f05be004f04be0051
:102a60000080fa00000006000100070000000600d8
:102a7000a4b79f00b5b79f00c6b79f00d7b79f0008
:102a8000000006004f09de0082817100b3b79f008d
:102a90004f01de008180400082807000a1b79f005e
:102aa0008fb097004f09de00000040000200700068
:102ab00090b79f007fa897004f01de008180400003
:102ac0008280700081b79f000d0007004f3ade0042
:102ad0000000400004007000f0af9f0008000700f5
:102ae0000402420085824a0006034b0087834b00a4
:102af000dfff07000802be000a03be000000060058
:102b00002fb29700bfb297004fb39700dfb3970083
:102b100000000600881f780018002000881f780039
:102b200089ff07008f87e9004f0478000000060046
:102b3000801feb0084ff07008f87e900000006007c
:102b4000889fbe008a9fbe00e00f5000e08f5800b3
:102b5000e00f5900e08f59000c003d006044b800c0
:102b60006055b8000000540081805c0002015d00e7
:102b700083815d00180020001500070008003d005b
:102b8000180007000004eb00050037000004eb000c
:102b90000f00070002003d0012000700180020008f
:102ba000dcff07000800e000060032006022b800e9
:102bb0006033b8000000520081805a0002015b00bf
:102bc00083815b004f05be004f04be00000006007d
:102bd000e00f5200e08f5a00e00f5b00e08f5b00d7
:102be000000006006044b8006055b80004025400bc
:102bf00085825c0006035d0087835d00000006009f
:102c0000889fbe008a9fbe008c1f7800e00f500096
:102c1000e08f5800e00f5900e08f59000d003d0093
:102c20006044b8006055b8000000540081805c002a
:102c300002015d0083815d001c0020000820e1008e
:102c400009a8e1000ab0e1000bb8e1000d003d0069
:102c5000080037000006eb00e00f5200e08f5a003a
:102c6000e00f5b00e08f5b0006003d006044b800b1
:102c70006055b8000402540085825c0006035d00c4
:102c800087835d00aaff07000c00e0000600320009
:102c90006022b8006033b8000000520081805a0002
:102ca00002015b0083815b004f0678004f05be0088
:082cb0004f04be000000060005
:020000040000fa
:102cb8000000000001000000020000000300000006
:102cc800300000003100000030310000003000000a
:102cd800303100003100000030300000303000009a
:102ce8003131000031310000003000003030000088
:102cf8003030000030300000303100003131000049
:102d08003131000031310000310000003030000066
:102d18003131000030300000313100003030000027
:102d28003131000030300000313100003131000015
:102d38003030000031310000313100003030000007
:102d480031310000313100003030000031310000f5
:102d580030300000313100003030000031310000e7
:102d68003030000030300000003300000030000038
:102d780030300000303000003030000030330000c8
:102d880033330000333300003333000033000000d6
:102d9800303000003030000033330000333300009f
:102da80000300000303300003300000030300000f5
:102db800333300003030000033330000303000007f
:102dc8003333000030300000333300003333000069
:102dd800303000003333000033330000303000005f
:102de8003333000033330000303000003333000049
:102df800303000003333000030300000333300003f
:102e08003030000030300000003200000030000098
:102e18003030000030300000303000003032000028
:102e2800323200003232000032320000320000003c
:102e38003030000030300000323200003232000002
:102e48000030000030320000320000003030000056
:102e580032320000303000003232000030300000e2
:102e680032320000303000003232000032320000ce
:102e780030300000323200003232000030300000c2
:102e880032320000323200003030000032320000ae
:102e980030300000323200003030000032320000a2
:102ea80030300000303000000032000032320000c4
:102eb8003232000032320000323300003333000077
:102ec8003333000033330000330000003232000097
:102ed800323200003230000030300000333300005e
:102ee8003333000033300000303000000031000080
:102ef8003131000031310000313100003132000041
:102f0800323200003232000032320000320000005b
:102f18006496000000000000669600000a000000a9
:102f2800799600000b000000709600000c0000006d
:102f38006b9600000d0000008a9600000e0000004d
:102f4800b996000014000000bb96000015000000b0
:102f5800cc96000016000000d5960000170000006f
:102f6800da96000018000000099700001e00000013
:102f78000b9700001f0000001c97000020000000b5
:102f880025970000210000002a9700002200000079
:102f980059970000280000006a97000029000000e7
:102fa8007b97000032000000256c0000783a000092
:102fb800202500006c7500000d0a00000066000066
:102fc800616900006c65000064200000746f0000f7
:102fd8002065000072610000736500000d000000ac
:102fe80066610000696c00006564000020740000e0
:102ff8006f2000007772000069740000650d000002
:10300800002500006c7800003a200000256c0000c4
:10301800780d00000a000000626f00006f74000065
:103028002073000065710000206b000065790000c6
:103038003a200000256c0000780d00000a0000000e
:103048000d000000726500006769000073740000dd
:103058006572000073200000696e0000697400004a
:10306800696100006c69000073650000642e00004f
:103078002041000064640000726500007373000062
:103088003d250000690d00000a0000004e560000b2
:103098004d4300004f4e00003d250000690d000023
:1030a8000a0000000000000001000000020000000b
:1030b800030000004572000061730000696e0000a3
:1030c800670d0000006400006f6e0000652e0000b0
:1030d8000d0000007772000069740000696e00003e
:1030e80067200000256c0000780d00000a00000031
:1030f80065720000726f00007220000072650000a7
:103108006164000062610000636b00003a20000007
:10311800256c0000783a0000202500006c7800003b
:103128002c200000256c0000780d00000a0000002b
:10313800256c0000783a0000202500006c7800001b
:103148000d0a000000660000616900006c6500005f
:1031580064200000746f00002065000072610000a8
:10316800736500000d00000066610000696c0000d6
:1031780065640000207400006f2000007772000072
:1031880069740000650d000000760000657200009b
:103198006966000079200000256c00007520000099
:1031a800256c0000750d00000a000000626f000029
:1031b8006f7400002073000065710000206b000030
:1031c800657900003a200000256c00007820000096
:1031d8007761000073200000256c0000780d000066
:1031e8000a000000706100006765000020610000af
:1031f8006464000072650000737300003a200000e8
:10320800256c0000780d00000a00000065720000bf
:1032180061730000656400002e0d0000006400006a
:103228006f6e000065200000626f00006f74000080
:103238007365000071200000777200006974000057
:10324800650d0000007500007064000061740000e6
:10325800650d0000007300006574000074690000cb
:103268006e670000206900006e6100006374000052
:103278006976000065200000746f0000206200007d
:103288006f6f00007473000065710000203100004a
:103298002e2e00002e0d0000007300006574000043
:1032a800746900006e67000020610000637400000c
:1032b8006976000065200000746f0000206200003d
:1032c8006f6f000074730000657100002032000009
:1032d8002e2e00002e0d0000006200006f6f00000f
:1032e80074200000737700006170000070650000b2
:1032f800640d0000000000004375000072300000fb
:1033080031000000437500007230000033000000f7
:1033180050540000656d0000700000004375000007
:103328007230000032000000437500007230000067
:1033380034000000437500007230000035000000c2
:10334800437500007230000036000000437500002d
:103358007230000037000000437500007230000032
:103368003800000046560000736e0000730000002d
:1033780043750000723000003900000043750000fa
:103388007231000030000000437500007231000007
:103398003200000043750000723100003100000067
:1033a800546500006d700000340000005465000092
:1033b8006d70000033000000546500006d7000005f
:1033c80031000000546500006d70000032000000fc
:1033d800487500006d69000064000000505300004b
:1033e8005556000069000000546500006d7000002b
:1033f80036000000546500006d70000035000000c4
:1034080000000000010000000000000000000000b3
:1034180000000000000000000000000001010000a2
:10342800010100000000000001010000000300008d
:103438000104000005060000070800000a0b000050
:103448000d0c00000913000002100000110f00000d
:103458000e150000141200000000000064000000b7
:020000040000fa
:103468000800fa00889fbe0030079800be00900050
:1034780000f02000008060004800de00000f7800a7
:103488001e0078008000400060ac230000804000ef
:10349800100078006102b9003e0090006101b80098
:1034a800f00f2000010020000204780003017800da
:1034b80080017800010078000304640000006100c6
:1034c8006101b800c011dd00020020000200be004a
:1034d8006141b800020070008380700000a9b90043
:1034e80002017800048cb9008801780003014100ca
:1034f8000020b80001014100820078000008b000f7
:103508000180b0004809dd004803de0006037100b1
:10351800c88bde0016079800270798001e00780061
:103528008000400060ae23000080400090007800da
:103538001e009000008050004f04be000080fa007a
:10354800000006000a00fa004007980000802000ea
:10355800000f780000402000100798000000eb00e2
:10356800200798000000eb002007980012003700a1
:103578001e007800baff070030079800be009000d0
:103588004e009000808f5000030034001e00900011
:103598001e0f4000020037001e0090001e0f100092
:1035a8001e0090000000d100100798002e00900027
:1035b8000000e800200798002e009000ef0f500050
:1035c800ebff34001e0078000080fa0000000600bf
:1035d8000200fa006626a900a0358000a035800008
:1035e800a03580000080ea006f0f60006626a80002
:1035f8006606a900a0358000a03580001e0078006e
:103608006a00b9000000780080007800a0358000ca
:103618000080ea006f00600000804000000f780022
:103628006606a8001e0078000080fa000000060068
:103638000200fa00000f78001e0078006101b8004f
:10364800c0fd2f00f1ff2f000200400083804800da
:10365800b200200003002000820f5000838f580022
:10366800d9003e00006001000b0037001b00370046
:103678002b0037003b0037004b0037005b0037005a
:103688006b0037007b0037008b0037009b0037004a
:10369800ab003700bb003700ca06a80050418000c5
:1036a8004102200000805000514180004202200069
:1036b8008100510001814000819623008100410072
:1036c800910078000160a10000014000809623006d
:1036d8000000410001087800bb003700ca26a80096
:1036e800504180005102200000805000514180006c
:1036f8005202200081005100018140008196230080
:1037080081004100910078000160a10000014000a3
:10371800809623000000410001087800aa003700c5
:10372800cb86a80050418000610220000080500034
:103738005141800062022000810051000181400057
:103748008196230081004100910078000160a1006a
:103758000001400080962300000041000108780025
:1037680099003700cba6a8005041800071022000c4
:1037780000805000514180007202200081005100f9
:10378800018140008196230081004100910078006a
:103798000160a10000014000809623000000410064
:1037a8000108780088003700caa6a80050418000a8
:1037b80081022000008050005141800082022000d8
:1037c8008100510001814000819623008100410061
:1037d800910078000160a10000014000809623005c
:1037e800000041000108780077003700ca86a80069
:1037f800504180009102200000805000514180001b
:10380800920220008100510001814000819623002e
:1038180081004100910078000160a1000001400092
:1038280080962300000041000108780066003700f8
:10383800a3e6a80050418000a102200000805000ab
:1038480051418000a2022000810051000181400006
:103858008196230081004100910078000160a10059
:103868000001400080962300000041000108780014
:1038780055003700ca66a80050418000b1022000f8
:103888000080500051418000b202200081005100a8
:103898000181400081962300810041009100780059
:1038a8000160a10000014000809623000000410053
:1038b8000108780044003700ca46a800504180003b
:1038c800c10220000080500051418000c202200047
:1038d8008100510001814000819623008100410050
:1038e800910078000160a10000014000809623004b
:1038f800000041000108780033003700cb06a8001b
:1039080050418000d10220000080500051418000c9
:10391800d2022000810051000181400081962300dd
:1039280081004100910078000160a1000001400081
:10393800809623000000410001087800220037002b
:10394800cae6a80050418000e10220000080500033
:1039580051418000e20220008100510001814000b5
:103968008196230081004100910078000160a10048
:103978000001400080962300000041000108780003
:1039880011003700cac6a80050418000f10220008b
:103998000080500051418000f20220008100510057
:1039a8000181400081962300810041009100780048
:1039b8000160a10000014000809623000000410042
:1039c80001087800000000000080fa0000000600ee
:1039d8000200fa00000f78001e0078006101b800ac
:1039e800c0fd2f00f1ff2f00020040008380480037
:1039f800b200200003002000820f5000838f58007f
:103a080074003e00006001000b0037001200370010
:103a1800190037002100370029003700310037002e
:103a28003800370040003700470037004e003700a5
:103a3800560037005e0037004036800061006000a5
:103a480000f0a7000000ea000000e9004f00de00d7
:103a58000040780060003700403680006200600057
:103a680000f0a7000000ea000000e9004f00de00b7
:103a780000407800580037004136800000002100df
:103a88000080600000f0a7000000ea000000e900e4
:103a98004f00de00004078004f00370041368000bc
:103aa800000022000080600000f0a7000000ea008b
:103ab8000000e9004f00de000040780046003700b3
:103ac80041368000000220000080600000f0a7005e
:103ad8000000ea000000e9004f00de000040780026
:103ae8003d003700403680007000600000f0a700fd
:103af8000000ea000000e9004f00de000040780006
:103b08003500370001358000000028000080600083
:103b180000f0a7000000ea000000e9004f00de0006
:103b2800004078002c0037004036800068006000b4
:103b380000f0a7000000ea000000e9004f00de00e6
:103b480000407800240037004036800064006000a0
:103b580000f0a7000000ea000000e9004f00de00c6
:103b6800004078001c00370041368000001020001b
:103b78000080600000f0a7000000ea000000e900f3
:103b88004f00de0000407800130037004136800007
:103b9800000820000080600000f0a7000000ea0094
:103ba8000000e9004f00de00004078000a003700fe
:103bb80041368000000420000080600000f0a7006b
:103bc8000000ea000000e9004f00de000040780035
:103bd800010037000040eb000080fa0000000600fa
:103be8000200fa00000f78001e0078006101b8009a
:103bf800c0fd2f00f1ff2f00020040008380480025
:103c0800b200200003002000820f5000838f58006c
:103c1800d9003e00006001000b0037001b00370090
:103c28002b0037003b0037004b0037005b003700a4
:103c38006b0037007b0037008b0037009b00370094
:103c4800ab003700bb003700ca06a900504180000e
:103c580041022000008050005141800042022000b3
:103c680081005100018140008196230081004100bc
:103c7800910078000160a0000001400080962300b8
:103c88000000410001087800bb003700ca26a900df
:103c980050418000510220000080500051418000b6
:103ca80052022000810051000181400081962300ca
:103cb80081004100910078000160a00000014000ef
:103cc800809623000000410001087800aa00370010
:103cd800cb86a9005041800061022000008050007e
:103ce80051418000620220008100510001814000a2
:103cf8008196230081004100910078000160a000b6
:103d0800000140008096230000004100010878006f
:103d180099003700cba6a90050418000710220000d
:103d28000080500051418000720220008100510043
:103d380001814000819623008100410091007800b4
:103d48000160a000000140008096230000004100af
:103d58000108780088003700caa6a90050418000f1
:103d68008102200000805000514180008202200022
:103d780081005100018140008196230081004100ab
:103d8800910078000160a0000001400080962300a7
:103d9800000041000108780077003700ca86a900b2
:103da8005041800091022000008050005141800065
:103db8009202200081005100018140008196230079
:103dc80081004100910078000160a00000014000de
:103dd8008096230000004100010878006600370043
:103de800a3e6a90050418000a102200000805000f5
:103df80051418000a2022000810051000181400051
:103e08008196230081004100910078000160a000a4
:103e1800000140008096230000004100010878005e
:103e280055003700ca66a90050418000b102200041
:103e38000080500051418000b202200081005100f2
:103e480001814000819623008100410091007800a3
:103e58000160a0000001400080962300000041009e
:103e68000108780044003700ca46a9005041800084
:103e7800c10220000080500051418000c202200091
:103e8800810051000181400081962300810041009a
:103e9800910078000160a000000140008096230096
:103ea800000041000108780033003700cb06a90064
:103eb80050418000d1022000008050005141800014
:103ec800d202200081005100018140008196230028
:103ed80081004100910078000160a00000014000cd
:103ee8008096230000004100010878002200370076
:103ef800cae6a90050418000e1022000008050007d
:103f080051418000e20220008100510001814000ff
:103f18008196230081004100910078000160a00093
:103f2800000140008096230000004100010878004d
:103f380011003700cac6a90050418000f1022000d4
:103f48000080500051418000f202200081005100a1
:103f58000181400081962300810041009100780092
:103f68000160a0000001400080962300000041008d
:103f780001087800000000000080fa000000060038
:103f88000000fa00ca06a800504180004102200043
:103f98000080500051418000420220008100510001
:103fa8000181400081962300810041009100780042
:103fb8000160a1000001400080962300000041003c
:103fc80001087800ca26a80050418000510220004c
:103fd80000805000514180005202200081005100b1
:103fe8000181400081962300810041009100780002
:103ff8000160a100000140008096230000004100fc
:1040080001087800cb86a80050418000610220009a
:104018000080500051418000620220008100510060
:1040280001814000819623008100410091007800c1
:104038000160a100000140008096230000004100bb
:1040480001087800cba6a80050418000710220002a
:104058000080500051418000720220008100510010
:104068000181400081962300810041009100780081
:104078000160a1000001400080962300000041007b
:1040880001087800caa6a8005041800081022000db
:1040980000805000514180008202200081005100c0
:1040a8000181400081962300810041009100780041
:1040b8000160a1000001400080962300000041003b
:1040c80001087800ca86a8005041800091022000ab
:1040d8000080500051418000920220008100510070
:1040e8000181400081962300810041009100780001
:1040f8000160a100000140008096230000004100fb
:1041080001087800a3e6a80050418000a102200021
:104118000080500051418000a2022000810051001f
:1041280001814000819623008100410091007800c0
:104138000160a100000140008096230000004100ba
:1041480001087800ca66a80050418000b10220002a
:104158000080500051418000b202200081005100cf
:104168000181400081962300810041009100780080
:104178000160a1000001400080962300000041007a
:1041880001087800ca46a80050418000c1022000fa
:104198000080500051418000c2022000810051007f
:1041a8000181400081962300810041009100780040
:1041b8000160a1000001400080962300000041003a
:1041c80001087800cb06a80050418000d1022000e9
:1041d8000080500051418000d2022000810051002f
:1041e8000181400081962300810041009100780000
:1041f8000160a100000140008096230000004100fa
:1042080001087800cae6a80050418000e1022000b9
:104218000080500051418000e202200081005100de
:1042280001814000819623008100410091007800bf
:104238000160a100000140008096230000004100b9
:1042480001087800cac6a80050418000f102200089
:104258000080500051418000f2022000810051008e
:10426800018140008196230081004100910078007f
:104278000160a10000014000809623000000410079
:10428800010878000080fa00000006000000fa002b
:10429800ca06a90050418000410220000080500059
:1042a80051418000420220008100510001814000fc
:1042b8008196230081004100910078000160a000f0
:1042c80000014000809623000000410001087800aa
:1042d800ca26a900504180005102200000805000e9
:1042e80051418000520220008100510001814000ac
:1042f8008196230081004100910078000160a000b0
:104308000001400080962300000041000108780069
:10431800cb86a90050418000610220000080500037
:10432800514180006202200081005100018140005b
:104338008196230081004100910078000160a0006f
:104348000001400080962300000041000108780029
:10435800cba6a900504180007102200000805000c7
:10436800514180007202200081005100018140000b
:104378008196230081004100910078000160a0002f
:1043880000014000809623000000410001087800e9
:10439800caa6a90050418000810220000080500078
:1043a80051418000820220008100510001814000bb
:1043b8008196230081004100910078000160a000ef
:1043c80000014000809623000000410001087800a9
:1043d800ca86a90050418000910220000080500048
:1043e800514180009202200081005100018140006b
:1043f8008196230081004100910078000160a000af
:104408000001400080962300000041000108780068
:10441800a3e6a90050418000a102200000805000be
:1044280051418000a202200081005100018140001a
:104438008196230081004100910078000160a0006e
:104448000001400080962300000041000108780028
:10445800ca66a90050418000b102200000805000c7
:1044680051418000b20220008100510001814000ca
:104478008196230081004100910078000160a0002e
:1044880000014000809623000000410001087800e8
:10449800ca46a90050418000c10220000080500097
:1044a80051418000c202200081005100018140007a
:1044b8008196230081004100910078000160a000ee
:1044c80000014000809623000000410001087800a8
:1044d800cb06a90050418000d10220000080500086
:1044e80051418000d202200081005100018140002a
:1044f8008196230081004100910078000160a000ae
:104508000001400080962300000041000108780067
:10451800cae6a90050418000e10220000080500056
:1045280051418000e20220008100510001814000d9
:104538008196230081004100910078000160a0006d
:104548000001400080962300000041000108780027
:10455800cac6a90050418000f10220000080500026
:1045680051418000f2022000810051000181400089
:104578008196230081004100910078000160a0002d
:1045880000014000809623000000410001087800e7
:104598000080fa00000006000400fa00000f78000e
:1045a800110798001e007800100078000000e00055
:1045b80010003a001e80e800100078000000e000bb
:1045c8000c003a009e0078006480400010007800db
:1045d8000000e00007003a009e0078006680400076
:1045e800100078000000e00002003a0010b38400d8
:1045f8001b0037001e007800900078001e00900015
:10460800808f5000060039009e00780066804000c8
:10461800900078001e009000808f50000200360045
:1046280000b384000e0037001e80e8009000780078
:104638001e009000808f5000060039009e00780010
:1046480064804000900078001e009000808f500029
:1046580002003600f0b2840001003700e0b28400a6
:104668000080fa00000006000a00fa0050418000ad
:1046780076001000800040008096230000804000f3
:1046880090007800210798002e009000e40f500059
:10469800030032002e009000e50f500002003a009f
:1046a80037fe07003d023700ae009000010f78008a
:1046b8000040eb00604798000040eb00704798000e
:1046c800c139800070418000923e200000005100f6
:1046d8000000400000017800e09d23000000410038
:1046e800adff0700400798006e4090008080fb00f7
:1046f800f2b284004e0090000000690000f0a700ac
:104708000000ea000000e9004f00de000100700030
:1047180000f0a7000000ea000000ea004f00de00f9
:10472800604798007e4090008080fb0002b38400c0
:104738004e0090000000690000f0a7000000ea00a9
:104748000000e9004f00de000100700000f0a70043
:104758000000ea000000ea004f00de007047980001
:10476800213a800070418000d23e200000005100b4
:104778000000400000017800e09d23000000410097
:1047880085ff0700400798006e4090008080fb007e
:10479800f2b284004e0090000000690000f0a7000b
:1047a8000000ea000000e9004f00de000100700090
:1047b80000f0a7000000ea000000ea004f00de0059
:1047c800604798007e4090008080fb0002b3840020
:1047d8004e0090000000690000f0a7000000ea0009
:1047e8000000e9004f00de000100700000f0a700a3
:1047f8000000ea000000ea004f00de007047980061
:10480800b038800016fb07008000780070418000f7
:10481800123f200000005100000040000001780015
:10482800e09d2300000041005bff0700400798005f
:104838006e4090008080fb00f2b284004e00900031
:104848000000690000f0a7000000ea000000e9008d
:104858004f00de000100700000f0a7000000ea0031
:104868000000ea004f00de00604798007e4090009c
:104878008080fb0002b384004e00900000006900b5
:1048880000f0a7000000ea000000e9004f00de0089
:104898000100700000f0a7000000ea000000ea0034
:1048a8004f00de0070479800003a8000ecfa0700dd
:1048b8008000780070418000523f200000005100c5
:1048c8000000400000017800e09d23000000410046
:1048d80031ff0700400798006e4090008080fb0081
:1048e800f2b284004e0090000000690000f0a700ba
:1048f8000000ea000000e9004f00de00010070003f
:1049080000f0a7000000ea000000ea004f00de0007
:10491800604798007e4090008080fb0002b38400ce
:104928004e0090000000690000f0a7000000ea00b7
:104938000000e9004f00de000100700000f0a70051
:104948000000ea000000ea004f00de00704798000f
:10495800f0398000c2fa07008000780070418000ba
:10496800923f200000005100000040000001780044
:10497800e09d23000000410007ff07004007980062
:104988006e4090008080fb00f2b284004e009000e0
:104998000000690000f0a7000000ea000000e9003c
:1049a8004f00de000100700000f0a7000000ea00e0
:1049b8000000ea004f00de00604798007e4090004b
:1049c8008080fb0002b384004e0090000000690064
:1049d80000f0a7000000ea000000e9004f00de0038
:1049e8000100700000f0a7000000ea000000ea00e3
:1049f8004f00de00704798009039800098fa070051
:104a08008000780070418000d23f200000005100f3
:104a18000000400000017800e09d230000004100f4
:104a2800ddfe0700400798006e4090008080fb0084
:104a3800f2b284004e0090000000690000f0a70068
:104a48000000ea000000e9004f00de0001007000ed
:104a580000f0a7000000ea000000ea004f00de00b6
:104a6800604798007e4090008080fb0002b384007d
:104a78004e0090000000690000f0a7000000ea0066
:104a88000000e9004f00de000100700000f0a70000
:104a98000000ea000000ea004f00de0070479800be
:104aa800a03980006efa070080007800704180000d
:104ab8001240200000005100000040000001780072
:104ac800e09d230000004100b3fe07004007980066
:104ad8006e4090008080fb00f2b284004e0090008f
:104ae8000000690000f0a7000000ea000000e900eb
:104af8004f00de000100700000f0a7000000ea008f
:104b08000000ea004f00de00604798007e409000f9
:104b18008080fb0002b384004e0090000000690012
:104b280000f0a7000000ea000000e9004f00de00e6
:104b38000100700000f0a7000000ea000000ea0091
:104b48004f00de0070479800a039800044fa070043
:104b58008000780070418000524020000000510021
:104b68000000400000017800e09d230000004100a3
:104b780089fe0700400798006e4090008080fb0087
:104b8800f2b284004e0090000000690000f0a70017
:104b98000000ea000000e9004f00de00010070009c
:104ba80000f0a7000000ea000000ea004f00de0065
:104bb800604798007e4090008080fb0002b384002c
:104bc8004e0090000000690000f0a7000000ea0015
:104bd8000000e9004f00de000100700000f0a700af
:104be8000000ea000000ea004f00de00704798006d
:104bf800a03980001afa0700800078007041800010
:104c080092402000000051000000400000017800a0
:104c1800e09d2300000041005ffe07004007980068
:104c28006e4090008080fb00f2b284004e0090003d
:104c38000000690000f0a7000000ea000000e90099
:104c48004f00de000100700000f0a7000000ea003d
:104c58000000ea004f00de00604798007e409000a8
:104c68008080fb0002b384004e00900000006900c1
:104c780000f0a7000000ea000000e9004f00de0095
:104c88000100700000f0a7000000ea000000ea0040
:104c98004f00de0070479800a0398000f0f9070047
:104ca8008000780070418000d24020000000510050
:104cb8000000400000017800e09d23000000410052
:104cc80035fe0700400798006e4090008080fb008a
:104cd800f2b284004e0090000000690000f0a700c6
:104ce8000000ea000000e9004f00de00010070004b
:104cf80000f0a7000000ea000000ea004f00de0014
:104d0800604798007e4090008080fb0002b38400da
:104d18004e0090000000690000f0a7000000ea00c3
:104d28000000e9004f00de000100700000f0a7005d
:104d38000000ea000000ea004f00de00704798001b
:104d4800a0398000c6f90700800078007041800013
:104d580012412000000051000000400000017800ce
:104d6800e09d2300000041000bfe0700400798006b
:104d78006e4090008080fb00f2b284004e009000ec
:104d88000000690000f0a7000000ea000000e90048
:104d98004f00de000100700000f0a7000000ea00ec
:104da8000000ea004f00de00604798007e40900057
:104db8008080fb0002b384004e0090000000690070
:104dc80000f0a7000000ea000000e9004f00de0044
:104dd8000100700000f0a7000000ea000000ea00ef
:104de8004f00de00704798007e4090000004e0000d
:104df8000300320020002000000f78001100370067
:104e08006e4090000004e0000c0032002e0090007c
:104e1800e20f500003003a0030002000000f780035
:104e2800080037001e007800e30f5000050032002c
:104e380010002000000f7800020037000000eb008f
:104e4800000f78005041800076001000800040007c
:104e580080962300008040001e0878001e0078001d
:104e6800e20f5000030032001e007800e30f5000ec
:104e780002003a0042fc07000e0037000000eb0079
:104e8800100798004002200010079800050037001e
:104e98001e009000d20707001e0090000000e800e6
:104ea800100798009e009000f0022000808f5000ac
:104eb800f7ff34002e0090009e007800808f50008d
:104ec800360032001e007800e20f50001e0032004b
:104ed800e20f500005003e000000e000080032002c
:104ee800e10f50000f0032002c003700e30f500094
:104ef8001e003200e40f5000250032002700370062
:104f0800d91507000004e00003003200200020004b
:104f18001040880021003700100020001040880051
:104f28001e003700d01507000004e000030032001f
:104f38007000200010408800180037006000200032
:104f48001040880015003700c71507000004e0006e
:104f580003003200c0002000104088000f00370016
:104f6800b0002000104088000c003700be15070074
:104f78000004e00003003200100120001040880007
:104f880006003700000120001040880003003700a9
:104f98008000200010408800000000000080fa0017
:104fa800000006000000fa001d01070020408000f4
:104fb8000000e80020408800214080000004200014
:104fc800808f500002003a00030007000428ef0019
:104fd8000080fa00000006000800fa0090408000f7
:104fe8000000e8009040880090408000f00f5000da
:104ff80003003a001228ef008c150700070037005d
:1050080090408000e30f5000030032009040800081
:10501800eb0f500001003a0093fd070001408000ab
:1050280030408000808f5000070032000040800030
:10503800304088000828ef0030408000e50f50001d
:10504800010036000628ef00114080005040800023
:10505800808f5000090032001040800050408800c6
:105068000c28ef005040800080007800500220009b
:10507800808f5000010036000a28ef003040800081
:1050880080004000a0ab2300008040009000780022
:105098004040800000804000104078002047980081
:1050a800404080000000e800404088003040800018
:1050b80080004000a0ab23000080400090007800f2
:1050c8004040800000804000104078000004e0006c
:1050d80001003a000828ef00ae40900000c3b3007a
:1050e80080cf500002003a008e26a9000100370048
:1050f8008e26a80050408000c200dd00c07829003c
:1051080000804000900078006040800000804000ef
:105118001040780020479800604080000000e800b8
:105128006040880050408000c200dd00c07829003f
:1051380000804000900078006040800000804000bf
:10514800104078000004e00001003a000c28ef004d
:105158002e4090000080fb0021032000810f5000aa
:105168000900320031032000810f5000090032008d
:1051780011032000810f500009003a00a3a6a900de
:10518800dfa6a80009003700a3a6a800dfa6a9008b
:1051980006003700a3a6a800dfa6a8000300370072
:1051a800a3a6a900dfa6a9000000000050418000c6
:1051b80076001000800040008096230000804000a8
:1051c80010007800e50f5000930032000135800090
:1051d80000102000008060000000e0005f00320046
:1051e800804080000000e0005c0034000000eb001c
:1051f800000f780080408000e20f50002a00320043
:10520800e30f500047003200e10f500050003a0011
:1052180040022000000f780016003700504180003f
:105228001e0010008000400080962300008040008f
:105238009000780021079800ae009000f0cf2f0072
:1052480000806000200798002e0090000080a000d9
:1052580020079800504180001e0010008000400088
:105268008096230000804000ae009000010878007e
:105278001e0fe800f00220009e007800808f50008a
:10528800e6ff3400504180007600100080004000a6
:10529800809623000080400011002000010878005b
:1052a800f1fc07002a00370040022000000f7800b8
:1052b80016003700504180001e001000800040009a
:1052c8008096230000804000900078003107980005
:1052d800be009000f0cf2f000080600030079800db
:1052e8003e0090000090a0003007980050418000d8
:1052f8001e001000800040008096230000804000bf
:10530800be009000010878001e0fe800f00220009f
:105318009e007800808f5000e6ff3400d2fc070022
:105328000b003700504180007600100080004000dc
:10533800809623000080400051002000010878007a
:10534800c9fc070020012000104088000000000070
:105358000028ef001028ef002f0037007140800070
:10536800401f2000808f50000900360071408000e7
:10537800c05d2000808f500005003e001000200016
:10538800804088004000200000408800220037004c
:1053980071408000c05d2000808f500009003600f9
:1053a80071408000409c2000808f500005003e0026
:1053b8002000200080408800300020000040880045
:1053c8001500370071408000409c2000808f5000fd
:1053d8000900360071408000c0da2000808f50003c
:1053e80005003e003000200080408800200020009a
:1053f800004088000800370071408000c0da2000b3
:10540800808f500004003600400020008040880053
:1054180010002000004088000080fa00000006000c
:105428001e00fa0001358000001020000080600096
:105438000000e000020032000e28ef0008003700ec
:10544800704080000000e8007040880070408000d4
:105458000000e00002003a000080eb007040880085
:1054680020398000000f7800504180007200100041
:105478009e00780000014000809623000000410053
:1054880001087800a040800000f0a7000000ea00b2
:105498000000ea004f00de00204798002e409000f0
:1054a8000004e00003003200a04080000000e90092
:1054b800a0408800a040800000f0a7000000ea009b
:1054c8000000ea004f00de00304798003e409000a0
:1054d8000004e000c0023a009038800020079800dd
:1054e800504180000103200000805000ae00900071
:1054f8000001400080962300000041000108780068
:1055080040368000610060000000e0002c003a0096
:105518002e0090001e001000300798007041800097
:10552800d14220000080500080004000e09d230010
:105538000080400010007800800078003e00900055
:10554800808f50001e003d002e4090000004a200f5
:105558000004e00006003200a0418000e10f500086
:1055680003003600a0418000a04088009b0237005d
:10557800ca06a80050418000410220000080500067
:105588005141800042022000810051000181400009
:10559800819623008100410011017800f1f32f006a
:1055a800810061000170a000000140008096230086
:1055b8000000410001087800b0418000a040880048
:1055c800c038800020079800504180001103200057
:1055d80000805000ae00900000014000809623003b
:1055e8000000410001087800403680006200600039
:1055f8000000e0002c003a002e0090001e00100071
:105608004007980070418000e1422000008050006f
:1056180080004000e09d23000080400010007800da
:10562800800078004e009000808f50001e003d00e2
:105638002e4090000004a2000004e00006003200a2
